{
  "contractName": "ProofOfAttendance",
  "abi": [
    {
      "anonymous": false,
      "inputs": [
        {
          "indexed": false,
          "internalType": "uint256",
          "name": "lectureId",
          "type": "uint256"
        },
        {
          "indexed": false,
          "internalType": "uint256",
          "name": "rollNumber",
          "type": "uint256"
        },
        {
          "indexed": false,
          "internalType": "uint256",
          "name": "timestamp",
          "type": "uint256"
        }
      ],
      "name": "AttendanceRecorded",
      "type": "event"
    },
    {
      "inputs": [
        {
          "internalType": "uint256",
          "name": "",
          "type": "uint256"
        },
        {
          "internalType": "uint256",
          "name": "",
          "type": "uint256"
        }
      ],
      "name": "attendance",
      "outputs": [
        {
          "internalType": "bool",
          "name": "",
          "type": "bool"
        }
      ],
      "stateMutability": "view",
      "type": "function",
      "constant": true
    },
    {
      "inputs": [
        {
          "internalType": "uint256",
          "name": "lectureId",
          "type": "uint256"
        },
        {
          "internalType": "uint256[]",
          "name": "rollNumbers",
          "type": "uint256[]"
        }
      ],
      "name": "recordBatchAttendance",
      "outputs": [
        {
          "internalType": "bool",
          "name": "",
          "type": "bool"
        }
      ],
      "stateMutability": "nonpayable",
      "type": "function"
    },
    {
      "inputs": [
        {
          "internalType": "uint256",
          "name": "lectureId",
          "type": "uint256"
        }
      ],
      "name": "getAttendanceReport",
      "outputs": [
        {
          "internalType": "uint256[]",
          "name": "",
          "type": "uint256[]"
        }
      ],
      "stateMutability": "view",
      "type": "function",
      "constant": true
    }
  ],
  "bytecode": "0x608060405234801561001057600080fd5b506108f4806100206000396000f3fe608060405234801561001057600080fd5b50600436106100415760003560e01c80634e933e1114610046578063639f75c41461007657806367b1c573146100a6575b600080fd5b610060600480360381019061005b9190610530565b6100d6565b60405161006d91906106b1565b60405180910390f35b610090600480360381019061008b91906104dc565b610105565b60405161009d91906106b1565b60405180910390f35b6100c060048036038101906100bb91906104b3565b610274565b6040516100cd919061068f565b60405180910390f35b60006020528160005260406000206020528060005260406000206000915091509054906101000a900460ff1681565b6000808311610149576040517f08c379a0000000000000000000000000000000000000000000000000000000008152600401610140906106cc565b60405180910390fd5b600082511161018d576040517f08c379a0000000000000000000000000000000000000000000000000000000008152600401610184906106ec565b60405180910390fd5b60005b82518110156102695760008382815181106101d4577f4e487b7100000000000000000000000000000000000000000000000000000000600052603260045260246000fd5b602002602001015190506001600080878152602001908152602001600020600083815260200190815260200160002060006101000a81548160ff0219169083151502179055507f6b68b0a062bc257396c65a77b4c85401a51ca7cfbbc3a9f557b304c0cffa8f0885824260405161024d9392919061070c565b60405180910390a150808061026190610800565b915050610190565b506001905092915050565b60606000805b6101f48110156102dc57600080858152602001908152602001600020600082815260200190815260200160002060009054906101000a900460ff16156102c95781806102c590610800565b9250505b80806102d490610800565b91505061027a565b5060008167ffffffffffffffff81111561031f577f4e487b7100000000000000000000000000000000000000000000000000000000600052604160045260246000fd5b60405190808252806020026020018201604052801561034d5781602001602082028036833780820191505090505b5090506000805b6101f48110156103fc57600080878152602001908152602001600020600082815260200190815260200160002060009054906101000a900460ff16156103e957808383815181106103ce577f4e487b7100000000000000000000000000000000000000000000000000000000600052603260045260246000fd5b60200260200101818152505081806103e590610800565b9250505b80806103f490610800565b915050610354565b50819350505050919050565b600061041b61041684610774565b610743565b9050808382526020820190508285602086028201111561043a57600080fd5b60005b8581101561046a5781610450888261049e565b84526020840193506020830192505060018101905061043d565b5050509392505050565b600082601f83011261048557600080fd5b8135610495848260208601610408565b91505092915050565b6000813590506104ad816108a7565b92915050565b6000602082840312156104c557600080fd5b60006104d38482850161049e565b91505092915050565b600080604083850312156104ef57600080fd5b60006104fd8582860161049e565b925050602083013567ffffffffffffffff81111561051a57600080fd5b61052685828601610474565b9150509250929050565b6000806040838503121561054357600080fd5b60006105518582860161049e565b92505060206105628582860161049e565b9150509250929050565b60006105788383610671565b60208301905092915050565b600061058f826107b0565b61059981856107c8565b93506105a4836107a0565b8060005b838110156105d55781516105bc888261056c565b97506105c7836107bb565b9250506001810190506105a8565b5085935050505092915050565b6105eb816107ea565b82525050565b60006105fe6012836107d9565b91507f496e76616c6964204c65637475726520494400000000000000000000000000006000830152602082019050919050565b600061063e6018836107d9565b91507f4e6f20726f6c6c206e756d626572732070726f766964656400000000000000006000830152602082019050919050565b61067a816107f6565b82525050565b610689816107f6565b82525050565b600060208201905081810360008301526106a98184610584565b905092915050565b60006020820190506106c660008301846105e2565b92915050565b600060208201905081810360008301526106e5816105f1565b9050919050565b6000602082019050818103600083015261070581610631565b9050919050565b60006060820190506107216000830186610680565b61072e6020830185610680565b61073b6040830184610680565b949350505050565b6000604051905081810181811067ffffffffffffffff8211171561076a57610769610878565b5b8060405250919050565b600067ffffffffffffffff82111561078f5761078e610878565b5b602082029050602081019050919050565b6000819050602082019050919050565b600081519050919050565b6000602082019050919050565b600082825260208201905092915050565b600082825260208201905092915050565b60008115159050919050565b6000819050919050565b600061080b826107f6565b91507fffffffffffffffffffffffffffffffffffffffffffffffffffffffffffffffff82141561083e5761083d610849565b5b600182019050919050565b7f4e487b7100000000000000000000000000000000000000000000000000000000600052601160045260246000fd5b7f4e487b7100000000000000000000000000000000000000000000000000000000600052604160045260246000fd5b6108b0816107f6565b81146108bb57600080fd5b5056fea2646970667358221220b75bd8a99bc103ef78905bb2e0e6bba3dc6182cdb4863c94cb23ecfac2c614d064736f6c63430008000033",
  "immutableReferences": {},
  "source": "// SPDX-License-Identifier: MIT\r\npragma solidity ^0.8.0;\r\n\r\ncontract ProofOfAttendance {\r\n    // Mapping from lecture ID to roll number to attendance status\r\n    mapping(uint256 => mapping(uint256 => bool)) public attendance; // uint256 for roll numbers\r\n\r\n    event AttendanceRecorded(uint256 lectureId, uint256 rollNumber, uint256 timestamp);\r\n\r\n    // Record attendance for a batch of roll numbers in a lecture\r\n    function recordBatchAttendance(uint256 lectureId, uint256[] memory rollNumbers) public returns (bool) {\r\n        require(lectureId > 0, \"Invalid Lecture ID\"); // Ensure valid lecture ID\r\n        require(rollNumbers.length > 0, \"No roll numbers provided\"); // Ensure roll numbers are provided\r\n        for (uint i = 0; i < rollNumbers.length; i++) {\r\n            uint256 rollNumber = rollNumbers[i];\r\n            attendance[lectureId][rollNumber] = true;\r\n            emit AttendanceRecorded(lectureId, rollNumber, block.timestamp);\r\n        }\r\n        return true;\r\n    }\r\n\r\n    // Function to generate a report for a specific lecture ID\r\n    function getAttendanceReport(uint lectureId) public view returns (uint[] memory) {\r\n        uint count = 0;\r\n\r\n        // Count how many roll numbers have true values\r\n        for (uint rollNumber = 0; rollNumber < 500; rollNumber++) { // assuming 500 roll numbers\r\n            if (attendance[lectureId][rollNumber]) {\r\n                count++;\r\n            }\r\n        }\r\n\r\n        // Create an array to hold those roll numbers\r\n        uint[] memory presentRollNumbers = new uint[](count);\r\n        uint index = 0;\r\n\r\n        for (uint rollNumber = 0; rollNumber < 500; rollNumber++) {\r\n            if (attendance[lectureId][rollNumber]) {\r\n                presentRollNumbers[index] = rollNumber;\r\n                index++;\r\n            }\r\n        }\r\n\r\n        return presentRollNumbers;\r\n    }\r\n}\r\n",
  "sourcePath": "C:\\Users\\skorg\\OneDrive - somaiya.edu\\KJS material\\Projects\\POA\\contracts\\ProofOfAttendance.sol",
  "compiler": {
    "name": "solc",
    "version": "0.8.0+commit.c7dfd78e.Emscripten.clang"
  },
  "schemaVersion": "3.4.16",
  "updatedAt": "2024-11-05T18:14:40.045Z",
  "networkType": "ethereum",
  "devdoc": {
    "kind": "dev",
    "methods": {},
    "version": 1
  },
  "userdoc": {
    "kind": "user",
    "methods": {},
    "version": 1
  }
}