{
  "contractName": "ProofOfAttendance",
  "abi": [
    {
      "anonymous": false,
      "inputs": [
        {
          "indexed": false,
          "internalType": "uint256",
          "name": "lectureId",
          "type": "uint256"
        },
        {
          "indexed": false,
          "internalType": "uint256",
          "name": "rollNumber",
          "type": "uint256"
        },
        {
          "indexed": false,
          "internalType": "uint256",
          "name": "timestamp",
          "type": "uint256"
        }
      ],
      "name": "AttendanceRecorded",
      "type": "event"
    },
    {
      "inputs": [
        {
          "internalType": "uint256",
          "name": "",
          "type": "uint256"
        },
        {
          "internalType": "uint256",
          "name": "",
          "type": "uint256"
        }
      ],
      "name": "attendance",
      "outputs": [
        {
          "internalType": "bool",
          "name": "",
          "type": "bool"
        }
      ],
      "stateMutability": "view",
      "type": "function",
      "constant": true
    },
    {
      "inputs": [
        {
          "internalType": "uint256",
          "name": "lectureId",
          "type": "uint256"
        },
        {
          "internalType": "uint256[]",
          "name": "rollNumbers",
          "type": "uint256[]"
        }
      ],
      "name": "recordBatchAttendance",
      "outputs": [
        {
          "internalType": "bool",
          "name": "",
          "type": "bool"
        }
      ],
      "stateMutability": "nonpayable",
      "type": "function"
    }
  ],
  "bytecode": "0x608060405234801561001057600080fd5b5061061c806100206000396000f3fe608060405234801561001057600080fd5b50600436106100365760003560e01c80634e933e111461003b578063639f75c41461006b575b600080fd5b61005560048036038101906100509190610338565b61009b565b6040516100629190610412565b60405180910390f35b610085600480360381019061008091906102e4565b6100ca565b6040516100929190610412565b60405180910390f35b60006020528160005260406000206020528060005260406000206000915091509054906101000a900460ff1681565b600080831161010e576040517f08c379a00000000000000000000000000000000000000000000000000000000081526004016101059061042d565b60405180910390fd5b6000825111610152576040517f08c379a00000000000000000000000000000000000000000000000000000000081526004016101499061044d565b60405180910390fd5b60005b825181101561022e576000838281518110610199577f4e487b7100000000000000000000000000000000000000000000000000000000600052603260045260246000fd5b602002602001015190506001600080878152602001908152602001600020600083815260200190815260200160002060006101000a81548160ff0219169083151502179055507f6b68b0a062bc257396c65a77b4c85401a51ca7cfbbc3a9f557b304c0cffa8f088582426040516102129392919061046d565b60405180910390a150808061022690610528565b915050610155565b506001905092915050565b600061024c610247846104d5565b6104a4565b9050808382526020820190508285602086028201111561026b57600080fd5b60005b8581101561029b578161028188826102cf565b84526020840193506020830192505060018101905061026e565b5050509392505050565b600082601f8301126102b657600080fd5b81356102c6848260208601610239565b91505092915050565b6000813590506102de816105cf565b92915050565b600080604083850312156102f757600080fd5b6000610305858286016102cf565b925050602083013567ffffffffffffffff81111561032257600080fd5b61032e858286016102a5565b9150509250929050565b6000806040838503121561034b57600080fd5b6000610359858286016102cf565b925050602061036a858286016102cf565b9150509250929050565b61037d81610512565b82525050565b6000610390601283610501565b91507f496e76616c6964204c65637475726520494400000000000000000000000000006000830152602082019050919050565b60006103d0601883610501565b91507f4e6f20726f6c6c206e756d626572732070726f766964656400000000000000006000830152602082019050919050565b61040c8161051e565b82525050565b60006020820190506104276000830184610374565b92915050565b6000602082019050818103600083015261044681610383565b9050919050565b60006020820190508181036000830152610466816103c3565b9050919050565b60006060820190506104826000830186610403565b61048f6020830185610403565b61049c6040830184610403565b949350505050565b6000604051905081810181811067ffffffffffffffff821117156104cb576104ca6105a0565b5b8060405250919050565b600067ffffffffffffffff8211156104f0576104ef6105a0565b5b602082029050602081019050919050565b600082825260208201905092915050565b60008115159050919050565b6000819050919050565b60006105338261051e565b91507fffffffffffffffffffffffffffffffffffffffffffffffffffffffffffffffff82141561056657610565610571565b5b600182019050919050565b7f4e487b7100000000000000000000000000000000000000000000000000000000600052601160045260246000fd5b7f4e487b7100000000000000000000000000000000000000000000000000000000600052604160045260246000fd5b6105d88161051e565b81146105e357600080fd5b5056fea2646970667358221220bfe18d22c379b2969141fb5a384a472727c9511dba041798eddc023aa9ac053364736f6c63430008000033",
  "immutableReferences": {},
  "source": "// SPDX-License-Identifier: MIT\r\npragma solidity ^0.8.0;\r\n\r\ncontract ProofOfAttendance {\r\n    // Mapping from lecture ID to roll number to attendance status\r\n    mapping(uint256 => mapping(uint256 => bool)) public attendance; // uint256 for roll numbers\r\n\r\n    event AttendanceRecorded(uint256 lectureId, uint256 rollNumber, uint256 timestamp);\r\n\r\n    // Record attendance for a batch of roll numbers in a lecture\r\n    function recordBatchAttendance(uint256 lectureId, uint256[] memory rollNumbers) public returns (bool) {\r\n        require(lectureId > 0, \"Invalid Lecture ID\"); // Ensure valid lecture ID\r\n        require(rollNumbers.length > 0, \"No roll numbers provided\"); // Ensure roll numbers are provided\r\n        for (uint i = 0; i < rollNumbers.length; i++) {\r\n            uint256 rollNumber = rollNumbers[i];\r\n            attendance[lectureId][rollNumber] = true;\r\n            emit AttendanceRecorded(lectureId, rollNumber, block.timestamp);\r\n        }\r\n        return true;\r\n    }\r\n\r\n    // Verify if a roll number was present in a specific lecture\r\n    // function verifyAttendance(uint256 lectureId, uint256 rollNumber) public view returns (bool) {\r\n    //     return attendance[lectureId][rollNumber];\r\n    // }\r\n}\r\n",
  "sourcePath": "C:\\Users\\skorg\\OneDrive\\Pictures\\KJS material\\TY KJSCE\\BCT\\heckermen\\POA\\contracts\\ProofOfAttendance.sol",
  "compiler": {
    "name": "solc",
    "version": "0.8.0+commit.c7dfd78e.Emscripten.clang"
  },
  "schemaVersion": "3.4.16",
  "updatedAt": "2024-08-30T05:00:44.502Z",
  "networkType": "ethereum",
  "devdoc": {
    "kind": "dev",
    "methods": {},
    "version": 1
  },
  "userdoc": {
    "kind": "user",
    "methods": {},
    "version": 1
  }
}